HDR.S46029.E00.C3904.S000012042020Fidelity & Guaranty Life N001                 
C203904COM3904202012040920240001        000000000012T                                                                                                                                                                                                                                                       
C2101220122000000000200000000002020111420201203                                                                                                                                                                                                                                                             
C220139040203390920240001INA                      31579E105BD814626                      20201203        2020120320200930100000000003000002000000000000000020000000012000000CPP     FIX    0000000000000000                              000                                                                
C220239040203390920240001                                      250000000010000000000300000                              HM33STXGYU001                 0000000000000000                                                                                                                                      
C220439040203390920240001ZINETH                                                                                                   HA        424146295           FI   X                                                                                                                                      
C220439040203390920240001JONES                              HENRY                                                                 G219700908424146295           34   N                                                                                                                                      
C220539040203390920240001                      H1BUSH                               ROBERT                                                                                              N453030         0000000000000000 1000000000                                                                         
C220139040203390920240002INA                      31579E105BD814626                      20201203        2020120320200930200000000003000002000000000000000020000000012000000PPP     FIX    0000000000000000                              000                                                                
C220239040203390920240002                                      250000000020000000000300000                              HM33STXGYU001                 0000000000000000                                                                                                                                      
C220439040203390920240002ZINETH                                                                                                   HA        424146295           FI   X                                                                                                                                      
C220439040203390920240002JONES                              HENRY                                                                 G219700908424146295           34   N                                                                                                                                      
C220539040203390920240002                      H1BUSH                               ROBERT                                                                                              N453030         0000000000000000 1000000000                                                                         
END.S46029.E00.C3904.S00000000014                                               
