HDR.S46027.E00.C3904.S000012042020Fidelity & Guaranty Life N006                 
C103904POV3904202012040921390001        00000000010520201203T                                                                                                                                                                                                                                               
C121723    00000000010000000000PVFINA                                                                                                                                                                                                                                                                       
C1301BM901610                      31579E105VA                                                                                                                3215FIX                    NIN                                                                                                                
C1302BM901610                      0000000010111565CR  0000000008891085SU  0000000010000000TP  0000000000900000SC  0000000010111565GD                                                                                                                                                                       
C1302BM901610                      0000000010111565DE                                                                                                                                                                                                                                                       
C1303BM901610                      31579E105FIXED     000000001011156510000000000000000000000000000000000000Fixed Interest Option                   FIX           Y1000000000  0000000000                                                                                                                   
C1306BM901610                      20200911092 20800911917                                                                                                                                                                                                                                                  
C1309BM901610                      WHO                                CINDY L                                                               OK888888888           3419800101   N1  F0000000000000000  0000000000                                                                                            
C1309BM901610                      SPOUSE                             BILL                                                                  BE                                 N1   0000000000000000  0000000000                                                                                            
C120122172300000000100000000000PVFINA                                                                                                                                                                                                                                                                       
C1301BM901630                      31579E105VA                                                                                                                2010FIX                    NOH                                                                                                                
C1302BM901630                      0000000005031645CR  0000000004538058SU  0000000005000000TP  0000000000000000TZ  0000000000000000VO                                                                                                                                                                       
C1302BM901630                      0000000000450000SC  0000000000000000CB  0000000005031645GD  0000000005031645DE                                                                                                                                                                                           
C1303BM901630                      31579E105FIXED     000000000503164510000000000000000000000000000000000000Fixed Interest Option                   FIX           Y1000000000  0000000000                                                                                                                   
C1305BM901630                                            H1MANSOUR                            JASON                                                                                     N236530                                                                                                             
C1306BM901630                      20200922092 20400922917                                                                                                                                                                                                                                                  
C1309BM901630                      JONES                              SAM                                                                   OK111111111           3419400101   N1  M0000000000000000  0000000000                                                                                            
C1309BM901630                      SPOUSE                             SALLY                                                                 BE                                 N1   0000000000000000  0000000000                                                                                            
C1301BM901631                      31579E105VA                                                                                                                2010FIX                    NKY                                                                                                                
C1302BM901631                      0000000008065189CR  0000000007192717SU  0000000008000000TP  0000000000000000TZ  0000000000000000VO                                                                                                                                                                       
C1302BM901631                      0000000000720000SC  0000000000000000CB  0000000008065189GD  0000000008065189DE                                                                                                                                                                                           
C1303BM901631                      31579E105FIXED     000000000806518910000000000000000000000000000000000000Fixed Interest Option                   FIX           Y1000000000  0000000000                                                                                                                   
C1305BM901631                                            H1GORMLEY                            MARY                                                                                      N236531                                                                                                             
C1306BM901631                      20200922092 20600922917                                                                                                                                                                                                                                                  
C1309BM901631                      JAMES                              SUSAN                                                                 OK222222222           3419600101   N1  F0000000000000000  0000000000                                                                                            
C1309BM901631                      SPOUSE                             TOM                                                                   BE                                 N1   0000000000000000  0000000000                                                                                            
C1301BM901598                      31578L100VA                                                                                                                2010EIA                    NIN                                                                                                                
C1302BM901598                      0000000005105641CR  0000000004609377SU  0000000005100000TP  0000000000000000TZ  0000000005100000VO                                                                                                                                                                       
C1302BM901598                      0000000000459508SC  0000000005100000CB  0000000005105641GD  0000000005105641DE                                                                                                                                                                                           
C1303BM901598                      31578L100FFND      000000000110564102164000000000000000000000000000000000Fixed Interest Option                   FIX           Y0200000000  0000000000                                                                                                                   
C1303BM901598                      31578L100SP1R      000000000100000001959000000000000000000000000000000000One-Year S&P 500 Annual Point-to-Point wIDX           Y0200000000  0000000000                                                                                                                   
C1303BM901598                      31578L100SPB1      000000000100000001959000000000000000000000000000000000One-Year S&P 500 Declared Rate on Gain  IDX           Y0200000000  0000000000                                                                                                                   
C1303BM901598                      31578L100SPP       000000000100000001959000000000000000000000000000000000One-Year S&P 500 Annual Point-to-Point  IDX           Y0200000000  0000000000                                                                                                                   
C1303BM901598                      31578L100SPP2      000000000100000001959000000000000000000000000000000000Two-Year S&P 500 Annual Point-to-Point  IDX           Y0200000000  0000000000                                                                                                                   
C1305BM901598                                            H1MANSOUR                            JASON                                                                                     N236530                                                                                                             
C1306BM901598                      20200915092 20500910917                                                                                                                                                                                                                                                  
C1309BM901598                      DOE                                JOHN C                                                                OK123456789           3419500101   N1  M0000000000000000  0000000000                                                                                            
C1309BM901598                      SPOUSE                             DOE                                                                   BE                                 N1   0000000000000000  0000000000                                                                                            
C1301BM901599                      31578L100VA                                                                                                                2000EIA                    NKY                                                                                                                
C1302BM901599                      0000000009450447CR  0000000008305348SU  0000000010000000TP  0000000000560495TW  0000000000850540SC                                                                                                                                                                       
C1302BM901599                      0000000009450447GD  0000000009450447DE                                                                                                                                                                                                                                   
C1303BM901599                      31578L100FFND      000000000189882302008000000000000000000000000000000000Fixed Interest Option                   FIX           Y0200000000  0000000000                                                                                                                   
C1303BM901599                      31578L100SP1R      000000000094395300999000000000000000000000000000000000One-Year S&P 500 Annual Point-to-Point wIDX           Y0100000000  0000000000                                                                                                                   
C1303BM901599                      31578L100SPB1      000000000283185902997000000000000000000000000000000000One-Year S&P 500 Declared Rate on Gain  IDX           Y0300000000  0000000000                                                                                                                   
C1303BM901599                      31578L100SPP       000000000188790601998000000000000000000000000000000000One-Year S&P 500 Annual Point-to-Point  IDX           Y0200000000  0000000000                                                                                                                   
C1303BM901599                      31578L100SPP2      000000000188790601998000000000000000000000000000000000Two-Year S&P 500 Annual Point-to-Point  IDX           Y0200000000  0000000000                                                                                                                   
C1305BM901599                                            H1GORMLEY                            MARY                                                                                      N236531                                                                                                             
C1306BM901599                      20200915092 20700911917                                                                                                                                                                                                                                                  
C1309BM901599                      SMITH                              JANE                                                                  OK222333555           3419700205   N1  F0000000000000000  0000000000                                                                                            
C1309BM901599                      SPOUSE                             ZACH                                                                  BE                                 N1   0000000000000000  0000000000                                                                                            
C1301BM901600                      31578L134VA                                                                                                                2010EIA                    NOH                                                                                                                
C1302BM901600                      0000000015013525CR  0000000013429518SU  0000000015000000TP  0000000000000000TZ  0000000000000000VO                                                                                                                                                                       
C1302BM901600                      0000000016125000PPB 0000000001351217SC  0000000000000000CB  0000000015013525GD  0000000015013525DE                                                                                                                                                                       
C1303BM901600                      31578L134FFND      000000000301352502008000000000000000000000000000000000Fixed Interest Option                   FIX           Y0200000000  0000000000                                                                                                                   
C1303BM901600                      31578L134SP1R      000000000300000001998000000000000000000000000000000000One-Year S&P 500 Annual Point-to-Point wIDX           Y0200000000  0000000000                                                                                                                   
C1303BM901600                      31578L134SPB1      000000000300000001998000000000000000000000000000000000One-Year S&P 500 Declared Rate on Gain  IDX           Y0200000000  0000000000                                                                                                                   
C1303BM901600                      31578L134SPP       000000000300000001998000000000000000000000000000000000One-Year S&P 500 Annual Point-to-Point  IDX           Y0200000000  0000000000                                                                                                                   
C1303BM901600                      31578L134SPP2      000000000300000001998000000000000000000000000000000000Two-Year S&P 500 Annual Point-to-Point  IDX           Y0200000000  0000000000                                                                                                                   
C1305BM901600                                            H1MANSOUR                            JASON                                                                                     N236530                                                                                                             
C1306BM901600                      20200915092 20900911917                                                                                                                                                                                                                                                  
C1309BM901600                      SMITH                              DAVID                                                                 OK111111111           3419900101   N1  M0000000000000000  0000000000                                                                                            
C1309BM901600                      SMITH                              AMY                                                                   JV654987954           3419900301   N1  F0000000000000000  0000000000                                                                                            
C1309BM901600                      SPOUSE                             AMY                                                                   BE                                 N1   0000000000000000  0000000000                                                                                            
C1301BM901601                      31579E105VA                                                                                                                2010FIX                    NPA                                                                                                                
C1302BM901601                      0000000020101451CR  0000000018273187SU  0000000020000000TP  0000000000000000TZ  0000000020000000VO                                                                                                                                                                       
C1302BM901601                      0000000001800000SC  0000000020000000CB  0000000020101451GD  0000000020101451DE                                                                                                                                                                                           
C1303BM901601                      31579E105FIXED     000000002010145110000000000000000000000000000000000000Fixed Interest Option                   FIX           Y1000000000  0000000000                                                                                                                   
C1305BM901601                                            H1MANSOUR                            JASON                                                                                     N236530                                                                                                             
C1306BM901601                      20200911092 20400911917                                                                                                                                                                                                                                                  
C1309BM901601                      SAM                                SALLY                                                                 OK222222222           3419400101   N1  F0000000000000000  0000000000                                                                                            
C1309BM901601                      SPOUSE                             SAM                                                                   BE                                 N1   0000000000000000  0000000000                                                                                            
C1301BM901602                      31579E105VA                                                                                                                2010FIX                    NWV                                                                                                                
C1302BM901602                      0000000002523498CR  0000000002249668SU  0000000002500000TP  0000000000000000TZ  0000000000000000VO                                                                                                                                                                       
C1302BM901602                      0000000000225000SC  0000000000000000CB  0000000002523498GD  0000000002523498DE                                                                                                                                                                                           
C1303BM901602                      31579E105FIXED     000000000252349810000000000000000000000000000000000000Fixed Interest Option                   FIX           Y1000000000  0000000000                                                                                                                   
C1305BM901602                                            H1GORMLEY                            MARY                                                                                      N236531                                                                                                             
C1306BM901602                      20200911092 20990911917                                                                                                                                                                                                                                                  
C1309BM901602                      JONES                              DOUG                                                                  OK666666666           3419990101   N1  M0000000000000000  0000000000                                                                                            
C1309BM901602                      JONES                              LISA                                                                  JV657987952           3419980101   N1  F0000000000000000  0000000000                                                                                            
C1309BM901602                      SPOUSE                             LISA                                                                  BE                                 N1   0000000000000000  0000000000                                                                                            
C1301BM901603                      31579E105VA                                                                                                                3215FIX                    NIN                                                                                                                
C1302BM901603                      0000000010111565CR  0000000008891085SU  0000000010000000TP  0000000000900000SC  0000000010111565GD                                                                                                                                                                       
C1302BM901603                      0000000010111565DE                                                                                                                                                                                                                                                       
C1303BM901603                      31579E105FIXED     000000001011156510000000000000000000000000000000000000Fixed Interest Option                   FIX           Y1000000000  0000000000                                                                                                                   
C1305BM901603                                            H1MANSOUR                            JASON                                                                                     N236530                                                                                                             
C1306BM901603                      20200911092 20800911917                                                                                                                                                                                                                                                  
C1309BM901603                      WHO                                CINDY L                                                               OK888888888           3419800101   N1  F0000000000000000  0000000000                                                                                            
C1309BM901603                      SPOUSE                             BILL                                                                  BE                                 N1   0000000000000000  0000000000                                                                                            
C1301BM901608                      31579E105VA                                                                                                                2010FIX                    NWV                                                                                                                
C1302BM901608                      0000000002523498CR  0000000002249668SU  0000000002500000TP  0000000000000000TZ  0000000000000000VO                                                                                                                                                                       
C1302BM901608                      0000000000225000SC  0000000000000000CB  0000000002523498GD  0000000002523498DE                                                                                                                                                                                           
C1303BM901608                      31579E105FIXED     000000000252349810000000000000000000000000000000000000Fixed Interest Option                   FIX           Y1000000000  0000000000                                                                                                                   
C1305BM901608                                            H1GORMLEY                            MARY                                                                                      N236531                                                                                                             
C1306BM901608                      20200911092 20990911917                                                                                                                                                                                                                                                  
C1309BM901608                      JONES                              DOUG                                                                  OK666666666           3419990101   N1  M0000000000000000  0000000000                                                                                            
C1309BM901608                      JONES                              LISA                                                                  JV657987952           3419980101   N1  F0000000000000000  0000000000                                                                                            
C1309BM901608                      SPOUSE                             LISA                                                                  BE                                 N1   0000000000000000  0000000000                                                                                            
C1301BM901609                      31579E105VA                                                                                                                2010FIX                    NPA                                                                                                                
C1302BM901609                      0000000020101451CR  0000000018273187SU  0000000020000000TP  0000000000000000TZ  0000000020000000VO                                                                                                                                                                       
C1302BM901609                      0000000001800000SC  0000000020000000CB  0000000020101451GD  0000000020101451DE                                                                                                                                                                                           
C1303BM901609                      31579E105FIXED     000000002010145110000000000000000000000000000000000000Fixed Interest Option                   FIX           Y1000000000  0000000000                                                                                                                   
C1305BM901609                                            H1MANSOUR                            JASON                                                                                     N236530                                                                                                             
C1306BM901609                      20200911092 20400911917                                                                                                                                                                                                                                                  
C1309BM901609                      SAM                                SALLY                                                                 OK222222222           3419400101   N1  F0000000000000000  0000000000                                                                                            
C1309BM901609                      SPOUSE                             SAME                                                                  BE                                 N1   0000000000000000  0000000000                                                                                            
END.S46027.E00.C3904.S00000000107                                               
