HDR.S46027.E00.C3904.S000012042020Fidelity & Guaranty Life N004                 
C103904POV3904202012040921260001        00000000019920201203T                                                                                                                                                                                                                                               
C120122072500000000150000000000PVFINA                                                                                                                                                                                                                                                                       
C1301BD810088                      31579E105VA                                                                                  897263849                     2010FIX                    NAK                                                                                                                
C1302BD810088                      0000000011228130CR  0000000010063930SU  0000000011000000TP  0000000000000000TZ  0000000011000000VO                                                                                                                                                                       
C1302BD810088                      0000000000990000SC  0000000011000000CB  0000000011228130GD  0000000011228130DE                                                                                                                                                                                           
C1303BD810088                      31579E105FIXED     000000001122813010000000000000000000000000000000000000Fixed Interest Option                   FIX           Y1000000000  0000000000                                                                                                                   
C1305BD810088                                            H1BUSH                               ROBERT                                                                                    N453030                                                                                                             
C1305BD810088                                            H1BUSH                               ROBERT                                                                                    N453030                                                                                                             
C1306BD810088                      20200612092 20760612917                                                                                                                                                                                                                                                  
C1309BD810088                      ENDICOTT                           NATHAN                                                                HA759033888           3419581124   N1  F0000000000000000  0000000000                                                                                            
C1309BD810088                      RICHARD                            ESTHER                                                                G2199789317           3419760509   N1  F0000000000000000  0000000000                                                                                            
C1309BD810088                      PARSON                             MARY                                                                  JV400907312           3419960803   N1  M0000000000000000  0000000000                                                                                            
C1309BD810088                      LAURA                              LEARY                                                                 BE                      19581124   N1   0000000000000000P11000000000                                                                                            
C1301BD810089                      31578L134VA                                                                                  94917918545689545705          3215EIA                    NIL                                                                                                                
C1302BD810089                      0000000002404696CR  0000000002188273SU  0000000002400000TP  0000000000000000AV  0000000002580000PPB                                                                                                                                                                      
C1302BD810089                      0000000000216423SC  0000000002404696GD  0000000002404696DE                                                                                                                                                                                                               
C1303BD810089                      31578L134FFND      000000000048469602016000000000000000000000000000000000Fixed Interest Option                   FIX           Y0200000000  0000000000                                                                                                                   
C1303BD810089                      31578L134SP1R      000000000048000001996000000000000000000000000000000000One-Year S&P 500 Annual Point-to-Point wIDX           Y0200000000  0000000000                                                                                                                   
C1303BD810089                      31578L134SPB1      000000000024000000998000000000000000000000000000000000One-Year S&P 500 Declared Rate on Gain  IDX           Y0100000000  0000000000                                                                                                                   
C1303BD810089                      31578L134SPP       000000000048000001996000000000000000000000000000000000One-Year S&P 500 Annual Point-to-Point  IDX           Y0200000000  0000000000                                                                                                                   
C1303BD810089                      31578L134SPP2      000000000072000002994000000000000000000000000000000000Two-Year S&P 500 Annual Point-to-Point  IDX           Y0300000000  0000000000                                                                                                                   
C1305BD810089                                            H1MARQUEZ                            HENRY                                                                                     N418205                                                                                                             
C1305BD810089                                            H1MARQUEZ                            HENRY                                                                                     N418205                                                                                                             
C1306BD810089                      20200615092 20840612917                                                                                                                                                                                                                                                  
C1309BD810089                      ELIZABETH                          SINGLETON                                                             OK502342222           3419840606   N1  M0000000000000000  0000000000                                                                                            
C1309BD810089                      JAMES                              ELIAS                                                                 BE                      19840606   N1   0000000000000000P11000000000                                                                                            
C1301BD810090                      31579E105VA                                                                                  84749603f3768                 2000FIX                    NNC                                                                                                                
C1302BD810090                      0000000010644074CR  0000000009408082SU  0000000010500000TP  0000000000945000SC  0000000010644074GD                                                                                                                                                                       
C1302BD810090                      0000000010644074DE                                                                                                                                                                                                                                                       
C1303BD810090                      31579E105FIXED     000000001064407410000000000000000000000000000000000000Fixed Interest Option                   FIX           Y1000000000  0000000000                                                                                                                   
C1305BD810090                                            H1JOHNSON                            EDNA                                                                                      N188410                                                                                                             
C1305BD810090                                            H1JOHNSON                            EDNA                                                                                      N188410                                                                                                             
C1306BD810090                      20200612092 20800612917                                                                                                                                                                                                                                                  
C1309BD810090                      BROWN                              NAOMI                                                                 OK132765081           3419791012   N1  M0000000000000000  0000000000                                                                                            
C1309BD810090                      DIANA                              BROWN                                                                 BE                      19791012   N1   0000000000000000P11000000000                                                                                            
C1301BD810091                      31578L100VA                                                                                  3393948893                    2010EIA                    NPA                                                                                                                
C1302BD810091                      0000000012930623CR  0000000011766867SU  0000000012900000TP  0000000000000000TZ  0000000012900000VO                                                                                                                                                                       
C1302BD810091                      0000000001163756SC  0000000012900000CB  0000000012930623GD  0000000012930623DE                                                                                                                                                                                           
C1303BD810091                      31578L100FFND      000000000269062302080000000000000000000000000000000000Fixed Interest Option                   FIX           Y0200000000  0000000000                                                                                                                   
C1303BD810091                      31578L100SP1R      000000000256000001980000000000000000000000000000000000One-Year S&P 500 Annual Point-to-Point  IDX           Y0200000000  0000000000                                                                                                                   
C1303BD810091                      31578L100SPB1      000000000128000000990000000000000000000000000000000000One-Year S&P 500 Declared Rate on Gain  IDX           Y0100000000  0000000000                                                                                                                   
C1303BD810091                      31578L100SPP       000000000256000001980000000000000000000000000000000000One-Year S&P 500 Annual Point-to-Point  IDX           Y0200000000  0000000000                                                                                                                   
C1303BD810091                      31578L100SPP2      000000000384000002970000000000000000000000000000000000Two-Year S&P 500 Annual Point-to-Point  IDX           Y0300000000  0000000000                                                                                                                   
C1305BD810091                                            H1PEACOCK                            KERRY                                                                                     N11122335                                                                                                           
C1306BD810091                      20200608092 20780608917                                                                                                                                                                                                                                                  
C1309BD810091                      DRIVER                             JO                                                                    OK509211238           3419780425   N1  F0000000000000000  0000000000                                                                                            
C1309BD810091                      LIME                               KRISH                                                                 BE                      19780425   N1   0000000000000000P11000000000                                                                                            
C1301BD810092                      31579E105VA                                                                                  AC789209276                   2000FIX                    NAK                                                                                                                
C1302BD810092                      0000000010152619CR  0000000009188559SU  0000000009999000TP  0000000000899910SC  0000000010152619GD                                                                                                                                                                       
C1302BD810092                      0000000010152619DE                                                                                                                                                                                                                                                       
C1303BD810092                      31579E105FIXED     000000001015261910000000000000000000000000000000000000Fixed Interest Option                   FIX           Y1000000000  0000000000                                                                                                                   
C1305BD810092                                            H1BUSH                               ROBERT                                                                                    N453030                                                                                                             
C1305BD810092                                            H1BUSH                               ROBERT                                                                                    N453030                                                                                                             
C1306BD810092                      20200612092 20750612917                                                                                                                                                                                                                                                  
C1309BD810092                      TAYLOR                             RICHARD                                                               OK235056219           3419741020   N1  M0000000000000000  0000000000                                                                                            
C1309BD810092                      RAYMOND                            JACOBS                                                                BE                      19741020   N1   0000000000000000P11000000000                                                                                            
C1301BD810149                      31578L100VA                                                                                  3393948893                    2010EIA                    NPA                                                                                                                
C1302BD810149                      0000000012279402CR  0000000011174256SU  0000000012800000TP  0000000000549451TW  0000000000000000TZ                                                                                                                                                                       
C1302BD810149                      0000000012308164VO  0000000001105146SC  0000000012308164CB  0000000012279402GD  0000000012279402DE                                                                                                                                                                       
C1303BD810149                      31578L100FFND      000000000247868202019000000000000000000000000000000000Fixed Interest Option                   FIX           Y0200000000  0000000000                                                                                                                   
C1303BD810149                      31578L100SP1R      000000000245018001995000000000000000000000000000000000One-Year S&P 500 Annual Point-to-Point  IDX           Y0200000000  0000000000                                                                                                                   
C1303BD810149                      31578L100SPB1      000000000122509000998000000000000000000000000000000000One-Year S&P 500 Declared Rate on Gain  IDX           Y0100000000  0000000000                                                                                                                   
C1303BD810149                      31578L100SPP       000000000245018001995000000000000000000000000000000000One-Year S&P 500 Annual Point-to-Point  IDX           Y0200000000  0000000000                                                                                                                   
C1303BD810149                      31578L100SPP2      000000000367527002993000000000000000000000000000000000Two-Year S&P 500 Annual Point-to-Point  IDX           Y0300000000  0000000000                                                                                                                   
C1305BD810149                                            H1PEACOCK                            KERRY                                                                                     N11122335                                                                                                           
C1306BD810149                      20200608092 20780605917                                                                                                                                                                                                                                                  
C1309BD810149                      DRIVER                             JO                                                                    OK509211238           3419780425   N1  F0000000000000000  0000000000                                                                                            
C1309BD810149                      LIME                               KRISH                                                                 BE                      19780425   N1   0000000000000000P11000000000                                                                                            
C1301BD810158                      31579E105VA                                                                                  AC789209276                   2000FIX                    NAK                                                                                                                
C1302BD810158                      0000000009761441CR  0000000008830864SU  0000000009999000TP  0000000000383268TW  0000000000868655SC                                                                                                                                                                       
C1302BD810158                      0000000009761441GD  0000000009761441DE                                                                                                                                                                                                                                   
C1303BD810158                      31579E105FIXED     000000000976144110000000000000000000000000000000000000Fixed Interest Option                   FIX           Y1000000000  0000000000                                                                                                                   
C1305BD810158                                            H1PEACOCK                            KERRY                                                                                     N11122335                                                                                                           
C1306BD810158                      20200616092 20750616917                                                                                                                                                                                                                                                  
C1309BD810158                      TAYLOR                             RICHARD                                                               OK235056219           3419741020   N1  M0000000000000000  0000000000                                                                                            
C1309BD810158                      RAYMOND                            JACOBS                                                                BE                      19741020   N1   0000000000000000P11000000000                                                                                            
C1301BD808153                      31578L134VA                                                                                  24269220                      2010EIA                    NTX                                                                                                                
C1302BD808153                      0000000014370338CR  0000000012723821SU  0000000014326018TP  0000000000000000TZ  0000000014326018VO                                                                                                                                                                       
C1302BD808153                      0000000015400469PPB 0000000001293330SC  0000000014326018CB  0000000014370338GD  0000000014370338DE                                                                                                                                                                       
C1303BD808153                      31578L134FFND      000000000362582402523000000000000000000000000000000000Fixed Interest Option                   FIX           Y0250000000  0000000000                                                                                                                   
C1303BD808153                      31578L134SP1R      000000000214890301495000000000000000000000000000000000One-Year S&P 500 Annual Point-to-Point wIDX           Y0150000000  0000000000                                                                                                                   
C1303BD808153                      31578L134SPB1      000000000143260200997000000000000000000000000000000000One-Year S&P 500 Declared Rate on Gain  IDX           Y0100000000  0000000000                                                                                                                   
C1303BD808153                      31578L134SPP       000000000429780502991000000000000000000000000000000000One-Year S&P 500 Annual Point-to-Point  IDX           Y0300000000  0000000000                                                                                                                   
C1303BD808153                      31578L134SPP2      000000000286520401994000000000000000000000000000000000Two-Year S&P 500 Annual Point-to-Point  IDX           Y0200000000  0000000000                                                                                                                   
C1305BD808153                                            H1MYERS                              MARK                                                                                      N7264828                                                                                                            
C1305BD808153                                            H1MYERS                              MARK                                                                                      N7264828                                                                                                            
C1306BD808153                      20200501092 20600427917                                                                                                                                                                                                                                                  
C1309BD808153                      JOHNSTONSON TRUST                                                                                        HA999999999           FI           X5  N0000000000000000  0000000000                                                                                            
C1309BD808153                      JOHNSTONSON-DOUGH                  CINDERELLAA                                                           G2010123010           3419600608   N1  F0000000000000000  0000000000                                                                                            
C1309BD808153                      JOHNSTONSON                        MAXAMILLIAN A                                                         HC010987010           3419600401   N1  M0000000000000000  0000000000                                                                                            
C1309BD808153                      JOHNSTONSON TRUST DTD 03/25/2                                                                            BE                                 X5   0000000000000000P11000000000                                                                                            
C1301BD808154                      31578L100VA                                                                                  1689T043                      2010EIA                    NTX                                                                                                                
C1302BD808154                      0000000125441686CR  0000000112454812SU  0000000125000000TP  0000000000000000TZ  0000000125000000VO                                                                                                                                                                       
C1302BD808154                      0000000011289752SC  0000000125000000CB  0000000125441686GD  0000000125441686DE                                                                                                                                                                                           
C1303BD808154                      31578L100FFND      000000003169168602527000000000000000000000000000000000Fixed Interest Option                   FIX           Y0250000000  0000000000                                                                                                                   
C1303BD808154                      31578L100SP1R      000000002500000001993000000000000000000000000000000000One-Year S&P 500 Annual Point-to-Point  IDX           Y0200000000  0000000000                                                                                                                   
C1303BD808154                      31578L100SPB1      000000003750000002989000000000000000000000000000000000One-Year S&P 500 Declared Rate on Gain  IDX           Y0300000000  0000000000                                                                                                                   
C1303BD808154                      31578L100SPP       000000001250000000996000000000000000000000000000000000One-Year S&P 500 Annual Point-to-Point  IDX           Y0100000000  0000000000                                                                                                                   
C1303BD808154                      31578L100SPP2      000000001875000001495000000000000000000000000000000000Two-Year S&P 500 Annual Point-to-Point  IDX           Y0150000000  0000000000                                                                                                                   
C1305BD808154                                            H1MYERS                              MARK                                                                                      N7264828                                                                                                            
C1305BD808154                                            H1MYERS                              MARK                                                                                      N7264828                                                                                                            
C1306BD808154                      20200501092 20600427917                                                                                                                                                                                                                                                  
C1309BD808154                      SSASSAFRAS                         HENRY B                                                               OK987987987           3419600301   N1  M0000000000000000  0000000000                                                                                            
C1309BD808154                      JJESSAMINE                         ELAINE B                                                              JV123123123           3419600408   N1  F0000000000000000  0000000000                                                                                            
C1309BD808154                      JJESSAMINE                         ELAINE B                                                              HC123123123           3419600408   N1  F0000000000000000  0000000000                                                                                            
C1309BD808154                      SURVIVING SPOUSE                                                                                         BE                      19600301   N1   0000000000000000P11000000000                                                                                            
C1309BD808154                      TEST6                              YOUR6                                                                 G5                                 N1   0000000000000000P10090000000                                                                                            
C1309BD808154                      TESTING-NAME8                      THEIR8                                                                G5                                 N1   0000000000000000P10120000000                                                                                            
C1309BD808154                      NAME3                              TESTING3                                                              G5                                 N1   0000000000000000P10220000000                                                                                            
C1309BD808154                      NAME1                              TEST1                                                                 G5                      19600301   N1   0000000000000000P10170000000                                                                                            
C1309BD808154                      NAME5                              SOME5                                                                 G5                                 N1   0000000000000000P10020000000                                                                                            
C1309BD808154                      TEST2                              NAME2                                                                 G5                      19600408   N1   0000000000000000P10190000000                                                                                            
C1309BD808154                      NAME7                              MY7                                                                   G5                                 N1   0000000000000000P10040000000                                                                                            
C1309BD808154                      TEST-NAME4                         ANN-OTHER4                                                            G5                                 N1   0000000000000000P10150000000                                                                                            
C1301BD808148                      31579E105VA                                                                                  1689T043                      2010FIX                    NCA                                                                                                                
C1302BD808148                      0000000007619183CR  0000000006944183SU  0000000007500000TP  0000000000000000TZ  0000000007500000VO                                                                                                                                                                       
C1302BD808148                      0000000000675000SC  0000000007500000CB  0000000007619183GD  0000000007619183DE                                                                                                                                                                                           
C1303BD808148                      31579E105FIXED     000000000761918310000000000000000000000000000000000000Fixed Interest Option                   FIX           Y1000000000  0000000000                                                                                                                   
C1305BD808148                                            H1CARTER                             JAMES                    J                                                                N583448                                                                                                             
C1305BD808148                                            H1CARTER                             JAMES                    J                                                                N583448                                                                                                             
C1306BD808148                      20200501092 20390501917                                                                                                                                                                                                                                                  
C1309BD808148                      JJESSAMINE                         ELAINE F                                                              OK123123006           3419390301   N1  F0000000000000000  0000000000                                                                                            
C1309BD808148                      SSASSAFRAS                         HENRY F                                                               JV987987006           3419390408   N1  M0000000000000000  0000000000                                                                                            
C1309BD808148                      SSASSAFRAS                         HENRY F                                                               HC987987006           3419390408   N1  M0000000000000000  0000000000                                                                                            
C1309BD808148                      SURVIVING SPOUSE                                                                                         BE                      19390301   N1   0000000000000000P11000000000                                                                                            
C1309BD808148                      NAME1                              TEST1                                                                 G5                      19390301   N1   0000000000000000P10250000000                                                                                            
C1309BD808148                      TESTING-NAME2                      ANN-OTHER2                                                            G5                      19390408   N1   0000000000000000P10750000000                                                                                            
C1301BD808149                      31578L100VA                                                                                  86440094                      2010EIA                    NIL                                                                                                                
C1302BD808149                      0000000014617351CR  0000000013301789SU  0000000014525023TP  0000000000000000TZ  0000000014525023VO                                                                                                                                                                       
C1302BD808149                      0000000001315562SC  0000000014525023CB  0000000014617351GD  0000000014617351DE                                                                                                                                                                                           
C1303BD808149                      31578L100FFND      000000000590233704038000000000000000000000000000000000Fixed Interest Option                   FIX           Y0400000000  0000000000                                                                                                                   
C1303BD808149                      31578L100SP1R      000000000581000903975000000000000000000000000000000000One-Year S&P 500 Annual Point-to-Point wIDX           Y0400000000  0000000000                                                                                                                   
C1303BD808149                      31578L100SPP       000000000290500501987000000000000000000000000000000000One-Year S&P 500 Annual Point-to-Point  IDX           Y0200000000  0000000000                                                                                                                   
C1305BD808149                                            H1SLETTEN                            KEVIN                                                                                     N8434697                                                                                                            
C1305BD808149                                            H1SLETTEN                            KEVIN                                                                                     N8434697                                                                                                            
C1305BD808149                                            H1ADAM                               HAWKS                                                                                     N3225569                                                                                                            
C1305BD808149                                            H1ADAM                               HAWKS                                                                                     N3225569                                                                                                            
C1305BD808149                                            H1YODER                              KEITH                                                                                     N15284024                                                                                                           
C1305BD808149                                            H1YODER                              KEITH                                                                                     N15284024                                                                                                           
C1305BD808149                                            H1MATTHEW                            GLATZ                                                                                     N955912                                                                                                             
C1305BD808149                                            H1MATTHEW                            GLATZ                                                                                     N955912                                                                                                             
C1306BD808149                      20200501092 20600427917                                                                                                                                                                                                                                                  
C1309BD808149                      JOHNSTONSON                        JEANNETTE C                                                           OK111111111           3419600325   N1  F0000000000000000  0000000000                                                                                            
C1309BD808149                      JOHNSTONSON                        MAXIMILLIAN XAVIE                                                     BE                      19600325   N1   0000000000000000P11000000000                                                                                            
C1301BD808150                      31579E105VA                                                                                  86440094                      2010FIX                    NFL                                                                                                                
C1302BD808150                      0000000018012644CR  0000000015986515SU  0000000017500000TP  0000000000000000TZ  0000000017500000VO                                                                                                                                                                       
C1302BD808150                      0000000001575000SC  0000000017500000CB  0000000018012644GD  0000000018012644DE                                                                                                                                                                                           
C1303BD808150                      31579E105FIXED     000000001801264410000000000000000000000000000000000000Fixed Interest Option                   FIX           Y1000000000  0000000000                                                                                                                   
C1305BD808150                                            H1CARTER                             JAMES                    J                                                                N583448                                                                                                             
C1305BD808150                                            H1CARTER                             JAMES                    J                                                                N583448                                                                                                             
C1306BD808150                      20200501092 20600501917                                                                                                                                                                                                                                                  
C1309BD808150                      JJESSAMINE                         ELAINE A                                                              OK123456789           3419600115   N1  F0000000000000000  0000000000                                                                                            
C1309BD808150                      SSSAFRASS                          HENRY A                                                               HC987654321           3419600103   N1  M0000000000000000  0000000000                                                                                            
C1309BD808150                      NAME2                              KID2                                                                  BE                                 N1   0000000000000000P10300000000                                                                                            
C1309BD808150                      NAME1                              KID1                                                                  BE                                 N1   0000000000000000P10200000000                                                                                            
C1309BD808150                      SSSAFRASS                          HENRY A                                                               BE                      19600115   N1   0000000000000000P10500000000                                                                                            
C1309BD808150                      NAME4                              SOME4                                                                 G5                                 N1   0000000000000000P10230000000                                                                                            
C1309BD808150                      TESTING8                           OUR8                                                                  G5                                 N1   0000000000000000P10150000000                                                                                            
C1309BD808150                      TEST-NAME7                         MY7                                                                   G5                                 N1   0000000000000000P10110000000                                                                                            
C1309BD808150                      TESTING6                           THEIR6                                                                G5                                 N1   0000000000000000P10200000000                                                                                            
C1309BD808150                      TEST5                              ANN-OTHER5                                                            G5                                 N1   0000000000000000P10180000000                                                                                            
C1309BD808150                      NAME3                              TESTING3                                                              G5                      19600115   N1   0000000000000000P10130000000                                                                                            
C1301BD808152                      31578L134VA                                                                                  7503W554                      3215EIA                    NAR                                                                                                                
C1302BD808152                      0000000029500000CR  0000000026131921SU  0000000029500000TP  0000000000000000AV  0000000031712500PPB                                                                                                                                                                      
C1302BD808152                      0000000002655000SC  0000000029500000GD  0000000029500000DE                                                                                                                                                                                                               
C1303BD808152                      31578L134SPB1      000000002950000010000000000000000000000000000000000000One-Year S&P 500 Declared Rate on Gain  IDX           Y1000000000  0000000000                                                                                                                   
C1305BD808152                                            H1TOM                                SPARK                                                                                     N1655254                                                                                                            
C1305BD808152                                            H1TOM                                SPARK                                                                                     N1655254                                                                                                            
C1305BD808152                                            H1THOMAS                             APPIE                                                                                     N89410                                                                                                              
C1305BD808152                                            H1THOMAS                             APPIE                                                                                     N89410                                                                                                              
C1306BD808152                      20200501092 20600427917                                                                                                                                                                                                                                                  
C1309BD808152                      SSASSAFRAS                         HENRY E                                                               OK987987123           3419600315   N1  M0000000000000000  0000000000                                                                                            
C1309BD808152                      JJESSAMINE                         ELAINE E                                                              BE                      19600315   N1   0000000000000000P11000000000                                                                                            
C1309BD808152                      TEST4                              THEIR4                                                                G5                                 N1   0000000000000000P10220000000                                                                                            
C1309BD808152                      NAME1                              TEST1                                                                 G5                      19600315   N1   0000000000000000P10140000000                                                                                            
C1309BD808152                      NAME3                              SOME3                                                                 G5                                 N1   0000000000000000P10200000000                                                                                            
C1309BD808152                      TEST2                              NAME2                                                                 G5                                 N1   0000000000000000P10180000000                                                                                            
C1309BD808152                      TEST5                              MY5                                                                   G5                                 N1   0000000000000000P10100000000                                                                                            
C1309BD808152                      TESTING6                           ANN-OTHER6                                                            G5                                 N1   0000000000000000P10160000000                                                                                            
C1301BD811578                      31579E105VA                                                                                  86440094                      2010FIX                    NNC                                                                                                                
C1302BD811578                      0000000009576465CR  0000000008395972SU  0000000009500000TP  0000000000000000TZ  0000000009500000VO                                                                                                                                                                       
C1302BD811578                      0000000000855000SC  0000000009500000CB  0000000009576465GD  0000000009576465DE                                                                                                                                                                                           
C1303BD811578                      31579E105FIXED     000000000957646510000000000000000000000000000000000000Fixed Interest Option                   FIX           Y1000000000  0000000000                                                                                                                   
C1305BD811578                                            H1CARTER                             JAMES                    J                                                                N583448                                                                                                             
C1305BD811578                                            H1CARTER                             JAMES                    J                                                                N583448                                                                                                             
C1306BD811578                      20200811092 20600811917                                                                                                                                                                                                                                                  
C1309BD811578                      NAME                               TEST                                                                  OK123171234           3419600101   N1  F0000000000000000  0000000000                                                                                            
C1309BD811578                      NAME                               TESTING                                                               BE                                 N1   0000000000000000P11000000000                                                                                            
C1301BD811579                      31578L100VA                                                                                  86440094                      2010EIA                    NAR                                                                                                                
C1302BD811579                      0000000008000000CR  0000000007056430SU  0000000008000000TP  0000000000000000TZ  0000000008000000VO                                                                                                                                                                       
C1302BD811579                      0000000000720000SC  0000000008000000CB  0000000008000000GD  0000000008000000DE                                                                                                                                                                                           
C1303BD811579                      31578L100SPB1      000000000800000010000000000000000000000000000000000000One-Year S&P 500 Declared Rate on Gain  IDX           Y1000000000  0000000000                                                                                                                   
C1305BD811579                                            H1TOM                                SPARK                                                                                     N1655254                                                                                                            
C1305BD811579                                            H1TOM                                SPARK                                                                                     N1655254                                                                                                            
C1305BD811579                                            H1THOMAS                             APPIE                                                                                     N89410                                                                                                              
C1305BD811579                                            H1THOMAS                             APPIE                                                                                     N89410                                                                                                              
C1306BD811579                      20200815092 20600811917                                                                                                                                                                                                                                                  
C1309BD811579                      NAME                               TESTING                                                               OK987189876           3419600101   N1  M0000000000000000  0000000000                                                                                            
C1309BD811579                      NAME                               TEST                                                                  BE                                 N1   0000000000000000P11000000000                                                                                            
END.S46027.E00.C3904.S00000000201                                               
