HDR.S46030.E00.C3904.S000012042020Fidelity & Guaranty Life N001                 
C403904202012040920280001        202012043904                                         3904                                   3904                                         FAR000000000011T                                                                                                                  
C420122012200000000010000000000INA                                                                                                                                                                                                                                                                          
C4301BD814626                                                    2010                              31579E105VA20200930092                                                                             FIX                                                                                                   
C4302BD814626                      5HA XZINETH                                                                                                                                                                              424146295           FI                                                          
C4302BD814626                      1G2 NJONES                              HENRY                                                                                                                                            424146295           34                                                          
C4304BD814626                                            BUSH                               ROBERT                                                                H1 1                    N453030                                                                                                           
C4304BD814626                                            BUSH                               ROBERT                                                                H1 1                    N453030                                                                                                           
C4305BD814626                      39040203390920280001HM33STXGYU001                 0000000012000000C675 0000000000000000    0000000000000000    0000000000000000    0000000000000000    0000000000000000    0000000000000000    0122HM33STXGYU         93               20200930202012032020              
C4306BD814626                      31579E105FIXED      0000000012000000C0000000000000000 0000000000000000 0000000000000000 0000000000000000 0000000000000000 000000000000000  000000000000000000                                   0000000000  0000000000                                                   
C4305BD814626                      39040203390920280001                              0000000012000000D679 0000000000000000    0000000000000000    0000000000000000    0000000000000000    0000000000000000    0000000000000000    0122HM33STXGYU         93               20201001202012032020              
C4306BD814626                      31579E105FIXED      0000000012000000D0000000000000000 0000000000000000 0000000000000000 0000000000000000 0000000000000000 000000000000000  000000000000000000                                   0000000000  0000000000                                                   
END.S46030.E00.C3904.S00000000013                                               
