HDR.S46027.E00.C3904.S000012042020Fidelity & Guaranty Life N001                 
C103904POV3904202012040920320001        00000001337420201203T                                                                                                                                                                                                                                               
C120122012200000011950000000000PVFINA                                                                                                                                                                                                                                                                       
C1301BD800753                      31578L100VA                                                                                                                2010EIA                    NAK                                                                                                                
C1302BD800753                      0000000005160584CR  0000000004789014SU  0000000005000000TP  0000000000000000TZ  0000000005000000VO                                                                                                                                                                       
C1302BD800753                      0000000000371570SC  0000000005000000CB  0000000005160584GD  0000000005160584DE                                                                                                                                                                                           
C1303BD800753                      31578L100FFND      000000000050578400980000000000000000000000000000000000Fixed Interest Option                   FIX           Y0100000000  0000000000                                                                                                                   
C1303BD800753                      31578L100SP1R      000000000055380001073000000000000000000000000000000000One-Year S&P 500 Annual Point-to-Point wIDX           Y0100000000  0000000000                                                                                                                   
C1303BD800753                      31578L100SPB1      000000000307200005953000000000000000000000000000000000One-Year S&P 500 Declared Rate on Gain  IDX           Y0600000000  0000000000                                                                                                                   
C1303BD800753                      31578L100SPP       000000000052900001025000000000000000000000000000000000One-Year S&P 500 Annual Point-to-Point  IDX           Y0100000000  0000000000                                                                                                                   
C1303BD800753                      31578L100SPP2      000000000050000000969000000000000000000000000000000000Two-Year S&P 500 Annual Point-to-Point  IDX           Y0100000000  0000000000                                                                                                                   
C1306BD800753                      20190915092 20890912917                                                                                                                                                                                                                                                  
C1309BD800753                      ELIZABETH                          SINGLETON                                                             HA520601081           3419561021   N1  M0000000000000000  0000000000                                                                                            
C1309BD800753                      GILBERT                            EDDIE                                                                 G2532615343           3419891225   N1  M0000000000000000  0000000000                                                                                            
C1309BD800753                      HOLLY                              EVERSON                                                               JV532615342           34           N1  N0000000000000000  0000000000                                                                                            
C1309BD800753                      TONY                               MORRIS                                                                BE                                 N1   0000000000000000  0000000000                                                                                            
C1309BD800753                      JAMES                              LIAS                                                                  BE                      19561021   N1   0000000000000000P11000000000                                                                                            
C1301BD800761                      31578L100VA                                                                                                                2010EIA                    NTX                                                                                                                
C1302BD800761                      0000000014156997CR  0000000013807134SU  0000000013000000TP  0000000000000000TZ  0000000013000000VO                                                                                                                                                                       
C1302BD800761                      0000000001019326SC  0000000013000000CB  0000000014156997GD  0000000014156997DE                                                                                                                                                                                           
C1303BD800761                      31578L100FFND      000000000131583100931000000000000000000000000000000000Fixed Interest Option                   FIX           Y0100000000  0000000000                                                                                                                   
C1303BD800761                      31578L100SP1R      000000000881766606228000000000000000000000000000000000One-Year S&P 500 Annual Point-to-Point wIDX           Y0600000000  0000000000                                                                                                                   
C1303BD800761                      31578L100SPB1      000000000134550000950000000000000000000000000000000000One-Year S&P 500 Declared Rate on Gain  IDX           Y0100000000  0000000000                                                                                                                   
C1303BD800761                      31578L100SPP       000000000137800000973000000000000000000000000000000000One-Year S&P 500 Annual Point-to-Point  IDX           Y0100000000  0000000000                                                                                                                   
C1303BD800761                      31578L100SPP2      000000000130000000918000000000000000000000000000000000Two-Year S&P 500 Annual Point-to-Point  IDX           Y0100000000  0000000000                                                                                                                   
C1306BD800761                      20190915092 20890912917                                                                                                                                                                                                                                                  
C1309BD800761                      BETH                               SINGLETON                                                             HA520601081           3419561021   N1  M0000000000000000  0000000000                                                                                            
C1309BD800761                      GILBERT                            EDDIE                                                                 G2532615343           3419891225   N1  F0000000000000000  0000000000                                                                                            
C1309BD800761                      HOLLY                              EVERSON                                                               JV532615342           3419581021   N1  N0000000000000000  0000000000                                                                                            
C1309BD800761                      JAMES                              ELIAS                                                                 BE                      19561021   N1   0000000000000000P11000000000                                                                                            
C1301BD800806                      31578L100VA                                                                                                                2010EIA                    NOK                                                                                                                
C1302BD800806                      0000000014593500CR  0000000014114471SU  0000000014000000TP  0000000000000000TZ  0000000014000000VO                                                                                                                                                                       
C1302BD800806                      0000000001050776SC  0000000014000000CB  0000000014593500GD  0000000014593500DE                                                                                                                                                                                           
C1303BD800806                      31578L100FFND      000000000283355601941000000000000000000000000000000000Fixed Interest Option                   FIX           Y0200000000  0000000000                                                                                                                   
C1303BD800806                      31578L100SP1R      000000000309394402120000000000000000000000000000000000One-Year S&P 500 Annual Point-to-Point wIDX           Y0200000000  0000000000                                                                                                                   
C1303BD800806                      31578L100SPB1      000000000289800001986000000000000000000000000000000000One-Year S&P 500 Declared Rate on Gain  IDX           Y0200000000  0000000000                                                                                                                   
C1303BD800806                      31578L100SPP       000000000296800002034000000000000000000000000000000000One-Year S&P 500 Annual Point-to-Point  IDX           Y0200000000  0000000000                                                                                                                   
C1303BD800806                      31578L100SPP2      000000000280000001919000000000000000000000000000000000Two-Year S&P 500 Annual Point-to-Point  IDX           Y0200000000  0000000000                                                                                                                   
C1305BD800806                                            H1BUSH                               ROBERT                                                                                    N453030                                                                                                             
C1305BD800806                                            H1BUSH                               ROBERT                                                                                    N453030                                                                                                             
C1306BD800806                      20190922092 20720916917                                                                                                                                                                                                                                                  
C1309BD800806                      HAMMOND                            JAMES                                                                 HA150183177           3419730911   N1  M0000000000000000  0000000000                                                                                            
C1309BD800806                      TAYLOR                             ANDREW                                                                G2684015166           3419720929   N1  M0000000000000000  0000000000                                                                                            
C1309BD800806                      GONZALEZ                           DONA                                                                  JV146946808           34           N1  N0000000000000000  0000000000                                                                                            
C1309BD800806                      FLEENER                            ESTHER                                                                BE                      19730911   N1   0000000000000000P11000000000                                                                                            
C1301BD800813                      31579E105VA                                                                                  45120145                      2010FIX                    NAK                                                                                                                
C1302BD800813                      0000000006240041CR  0000000006101640SU  0000000006000000TP  0000000000000000TZ  0000000006000000VO                                                                                                                                                                       
C1302BD800813                      0000000000480000SC  0000000006000000CB  0000000006240041GD  0000000006240041DE                                                                                                                                                                                           
C1303BD800813                      31579E105FIXED     000000000624004110000000000000000000000000000000000000Fixed Interest Option                   FIX           Y1000000000  0000000000                                                                                                                   
C1305BD800813                                            H1BUSH                               ROBERT                                                                                    N453030                                                                                                             
C1305BD800813                                            H1BUSH                               ROBERT                                                                                    N453030                                                                                                             
C1306BD800813                      20190918092 20710918917                                                                                                                                                                                                                                                  
C1309BD800813                      NORTH                              JACOB M                                                               HA641013852           3419600207   N1  M0000000000000000  0000000000                                                                                            
C1309BD800813                      SHEPHERD                           DAVID J                                                               G2198700492           3419810524   N1  M0000000000000000  0000000000                                                                                            
C1309BD800813                      HOOPER                             CARL G                                                                BE                      19600207   N1   0000000000000000P11000000000                                                                                            
C1301BD800826                      31578L100VA                                                                                                                2010EIA                    NAK                                                                                                                
C1302BD800826                      0000000005378800CR  0000000004991526SU  0000000005000000TP  0000000000000000TZ  0000000005000000VO                                                                                                                                                                       
C1302BD800826                      0000000000387274SC  0000000005000000CB  0000000005378800GD  0000000005378800DE                                                                                                                                                                                           
C1303BD800826                      31578L100SP1R      000000000537880010000000000000000000000000000000000000One-Year S&P 500 Annual Point-to-Point wIDX           Y1000000000  0000000000                                                                                                                   
C1305BD800826                                            H1BUSH                               ROBERT                                                                                    N453030                                                                                                             
C1305BD800826                                            H1BUSH                               ROBERT                                                                                    N453030                                                                                                             
C1306BD800826                      20190922092 20870919917                                                                                                                                                                                                                                                  
C1309BD800826                      DIAZ                               JENNIFER                                                              OK213121111           3419870909   N1  F0000000000000000  0000000000                                                                                            
C1309BD800826                      DEMO                               PACK                                                                  BE                      19870909   N1   0000000000000000P11000000000                                                                                            
C1301BD800829                      31579E105VA                                                                                                                2010FIX                    NAL                                                                                                                
C1302BD800829                      0000000005608989CR  0000000005478213SU  0000000005400000TP  0000000000000000TZ  0000000005400000VO                                                                                                                                                                       
C1302BD800829                      0000000000432000SC  0000000005400000CB  0000000005608989GD  0000000005608989DE                                                                                                                                                                                           
C1303BD800829                      31579E105FIXED     000000000560898910000000000000000000000000000000000000Fixed Interest Option                   FIX           Y1000000000  0000000000                                                                                                                   
C1305BD800829                                            H1BUSH                               ROBERT                                                                                    N453030                                                                                                             
C1305BD800829                                            H1BUSH                               ROBERT                                                                                    N453030                                                                                                             
C1306BD800829                      20190919092 20890919917                                                                                                                                                                                                                                                  
C1309BD800829                      JUNIOR                             LATHAM                                                                OK234311111           3419890202   N1  M0000000000000000  0000000000                                                                                            
C1309BD800829                      LATHAM                             JESSICA                                                               BE                                 N1   0000000000000000P11000000000                                                                                            
C1309BD800829                      HARDY                              TOM                                                                   BE                                 N1   0000000000000000P11000000000                                                                                            
C1309BD800829                      EUNICE LETTERMAN                                                                                         BE                                 X5   0000000000000000P11000000000                                                                                            
C1309BD800829                      JAMES                              THOMAS                                                                BE                                 N1   0000000000000000  0000000000                                                                                            
C1309BD800829                      SMITH                              JORDAN                                                                BE                                 N1   0000000000000000P11000000000                                                                                            
C1309BD800829                      POPS                               JONY                                                                  BE                                 N1   0000000000000000P11000000000                                                                                            
C1309BD800829                      SUAREZ                             WILLIAM                                                               BE                      19890202   N1   0000000000000000P11000000000                                                                                            
C1301BD800835                      31578L100VA                                                                                                                2010EIA                    NTX                                                                                                                
C1302BD800835                      0000000011810551CR  0000000011422880SU  0000000011000000TP  0000000000000000TZ  0000000011000000VO                                                                                                                                                                       
C1302BD800835                      0000000000850377SC  0000000011000000CB  0000000011810551GD  0000000011810551DE                                                                                                                                                                                           
C1303BD800835                      31578L100FFND      000000000111318300943000000000000000000000000000000000Fixed Interest Option                   FIX           Y0100000000  0000000000                                                                                                                   
C1303BD800835                      31578L100SP1R      000000000729286806175000000000000000000000000000000000One-Year S&P 500 Annual Point-to-Point wIDX           Y0600000000  0000000000                                                                                                                   
C1303BD800835                      31578L100SPB1      000000000113850000964000000000000000000000000000000000One-Year S&P 500 Declared Rate on Gain  IDX           Y0100000000  0000000000                                                                                                                   
C1303BD800835                      31578L100SPP       000000000116600000987000000000000000000000000000000000One-Year S&P 500 Annual Point-to-Point  IDX           Y0100000000  0000000000                                                                                                                   
C1303BD800835                      31578L100SPP2      000000000110000000931000000000000000000000000000000000Two-Year S&P 500 Annual Point-to-Point  IDX           Y0100000000  0000000000                                                                                                                   
C1305BD800835                                            H1CONN                               MARSHALL                                                                                  N832699                                                                                                             
C1305BD800835                                            H1CONN                               MARSHALL                                                                                  N832699                                                                                                             
C1306BD800835                      20190922092 20560919917                                                                                                                                                                                                                                                  
C1309BD800835                      ELIZABETH                          SINGLETON                                                             OK520601081           3419561021   N1  M0000000000000000  0000000000                                                                                            
C1309BD800835                      HOLLY                              EVERSON                                                               JV532615342           34           N1  N0000000000000000  0000000000                                                                                            
C1309BD800835                      JAMES                              ELIAS                                                                 BE                      19561021   N1   0000000000000000P11000000000                                                                                            
C1309BD800835                      BILLY                              VILLASENOR                                                            G5                      19561021   N1   0000000000000000P11000000000                                                                                            
C1301BD800841                      31579E105VA                                                                                                                2000FIX                    NNC                                                                                                                
C1302BD800841                      0000000002079827CR  0000000002031384SU  0000000002000000TP  0000000000160000SC  0000000002079827GD                                                                                                                                                                       
C1302BD800841                      0000000002079827DE                                                                                                                                                                                                                                                       
C1303BD800841                      31579E105FIXED     000000000207982710000000000000000000000000000000000000Fixed Interest Option                   FIX           Y1000000000  0000000000                                                                                                                   
C1305BD800841                                            H1JOHNSON                            EDNA                                                                                      N188410                                                                                                             
C1305BD800841                                            H1JOHNSON                            EDNA                                                                                      N188410                                                                                                             
C1306BD800841                      20190919092 20760919917                                                                                                                                                                                                                                                  
C1309BD800841                      FLEENER                            ESTHER                                                                OK566416910           3419860130   N1  M0000000000000000  0000000000                                                                                            
C1309BD800841                      JACK                               THOMPSON                                                              JV                                 N1  N0000000000000000  0000000000                                                                                            
C1309BD800841                      ELMER                              DENNIS                                                                BE                      19860130   N1   0000000000000000P11000000000                                                                                            
C1301BD800842                      31578L100VA                                                                                                                3215EIA                    NNC                                                                                                                
C1302BD800842                      0000000009503410CR  0000000009129375SU  0000000009000000TP  0000000000684258SC  0000000009503410GD                                                                                                                                                                       
C1302BD800842                      0000000009503410DE                                                                                                                                                                                                                                                       
C1303BD800842                      31578L100FFND      000000000090970600957000000000000000000000000000000000Fixed Interest Option                   FIX           Y0100000000  0000000000                                                                                                                   
C1303BD800842                      31578L100SP1R      000000000580910406113000000000000000000000000000000000One-Year S&P 500 Annual Point-to-Point wIDX           Y0600000000  0000000000                                                                                                                   
C1303BD800842                      31578L100SPB1      000000000093060000979000000000000000000000000000000000One-Year S&P 500 Declared Rate on Gain  IDX           Y0100000000  0000000000                                                                                                                   
C1303BD800842                      31578L100SPP       000000000095400001004000000000000000000000000000000000One-Year S&P 500 Annual Point-to-Point  IDX           Y0100000000  0000000000                                                                                                                   
C1303BD800842                      31578L100SPP2      000000000090000000947000000000000000000000000000000000Two-Year S&P 500 Annual Point-to-Point  IDX           Y0100000000  0000000000                                                                                                                   
C1305BD800842                                            H1JOHNSON                            EDNA                                                                                      N188410                                                                                                             
C1305BD800842                                            H1JOHNSON                            EDNA                                                                                      N188410                                                                                                             
C1306BD800842                      20190922092 20860919917                                                                                                                                                                                                                                                  
C1309BD800842                      FLEENER                            ESTHER                                                                OK566416910           3419860130   N1  M0000000000000000  0000000000                                                                                            
C1309BD800842                      ELMER                              DENNIS                                                                BE                      19860130   N1   0000000000000000P11000000000                                                                                            
C1301BD800855                      31579E105VA                                                                                  850124550                     2010FIX                    NAK                                                                                                                
C1302BD800855                      0000000007789586CR  0000000007608380SU  0000000007500000TP  0000000000000000TZ  0000000007500000VO                                                                                                                                                                       
C1302BD800855                      0000000000600000SC  0000000007500000CB  0000000007789586GD  0000000007789586DE                                                                                                                                                                                           
C1303BD800855                      31579E105FIXED     000000000778958610000000000000000000000000000000000000Fixed Interest Option                   FIX           Y1000000000  0000000000                                                                                                                   
C1305BD800855                                            H1BUSH                               ROBERT                                                                                    N453030                                                                                                             
C1305BD800855                                            H1BUSH                               ROBERT                                                                                    N453030                                                                                                             
C1306BD800855                      20190920092 20900920917                                                                                                                                                                                                                                                  
C1309BD800855                      COOPER                             LOIUS R                                                               HA394622284           3419900317   N1  M0000000000000000  0000000000                                                                                            
C1309BD800855                      CHARLES                            DUKE P                                                                G2216800486           3419900323   N1  M0000000000000000  0000000000                                                                                            
C1309BD800855                      BECKHAM                            DAVID K                                                               BE                      19900317   N1   0000000000000000P11000000000                                                                                            
C1301BD800856                      31579E105VA                                                                                  784520145                     2010FIX                    NAK                                                                                                                
C1302BD800856                      0000000006758844CR  0000000006609604SU  0000000006500000TP  0000000000000000TZ  0000000006500000VO                                                                                                                                                                       
C1302BD800856                      0000000000520000SC  0000000006500000CB  0000000006758844GD  0000000006758844DE                                                                                                                                                                                           
C1303BD800856                      31579E105FIXED     000000000675884410000000000000000000000000000000000000Fixed Interest Option                   FIX           Y1000000000  0000000000                                                                                                                   
C1305BD800856                                            H1BUSH                               ROBERT                                                                                    N453030                                                                                                             
C1305BD800856                                            H1BUSH                               ROBERT                                                                                    N453030                                                                                                             
C1306BD800856                      20190920092 20800920917                                                                                                                                                                                                                                                  
C1309BD800856                      ROMAN                              DONALD G                                                              HA284425034           3419920626   N1  M0000000000000000  0000000000                                                                                            
C1309BD800856                      BUTLER                             GERALD P                                                              G2759011037           3419900524   N1  M0000000000000000  0000000000                                                                                            
C1309BD800856                      JOSE                               KURT J                                                                BE                      19920626   N1   0000000000000000P11000000000                                                                                            
C1301BD800859                      31579E105VA                                                                                                                2010FIX                    NOK                                                                                                                
C1302BD800859                      0000000009369293CR  0000000009162614SU  0000000009000000TP  0000000000000000TZ  0000000009000000VO                                                                                                                                                                       
C1302BD800859                      0000000000720000SC  0000000009000000CB  0000000009369293GD  0000000009369293DE                                                                                                                                                                                           
C1303BD800859                      31579E105FIXED     000000000936929310000000000000000000000000000000000000Fixed Interest Option                   FIX           Y1000000000  0000000000                                                                                                                   
C1305BD800859                                            H1BUSH                               ROBERT                                                                                    N453030                                                                                                             
C1305BD800859                                            H1BUSH                               ROBERT                                                                                    N453030                                                                                                             
C1306BD800859                      20190920092 20470920917                                                                                                                                                                                                                                                  
C1309BD800859                      HOWARD                             DAVID                                                                 HA157581279           3419770414   N1  M0000000000000000  0000000000                                                                                            
C1309BD800859                      MCDOWELL                           MAC                                                                   G2245169027           3419570713   N1  M0000000000000000  0000000000                                                                                            
C1309BD800859                      RICHARDSON                         RICHARD                                                               JV158151850           34           N1  N0000000000000000  0000000000                                                                                            
C1309BD800859                      LASALLE                            BARBARA                                                               BE                      19770414   N1   0000000000000000P11000000000                                                                                            
C1301BD800867                      31578L100VA                                                                                                                2010EIA                    NIL                                                                                                                
C1302BD800867                      0000000011402943CR  0000000010581901SU  0000000011000000TP  0000000000000000TZ  0000000011000000VO                                                                                                                                                                       
C1302BD800867                      0000000000821042SC  0000000011000000CB  0000000011402943GD  0000000011402943DE                                                                                                                                                                                           
C1303BD800867                      31578L100FFND      000000000222581901951000000000000000000000000000000000Fixed Interest Option                   FIX           Y0200000000  0000000000                                                                                                                   
C1303BD800867                      31578L100SP1R      000000000125162401098000000000000000000000000000000000One-Year S&P 500 Annual Point-to-Point  IDX           Y0100000000  0000000000                                                                                                                   
C1303BD800867                      31578L100SPB1      000000000227700001997000000000000000000000000000000000One-Year S&P 500 Declared Rate on Gain  IDX           Y0200000000  0000000000                                                                                                                   
C1303BD800867                      31578L100SPP       000000000234850002060000000000000000000000000000000000One-Year S&P 500 Annual Point-to-Point  IDX           Y0200000000  0000000000                                                                                                                   
C1303BD800867                      31578L100SPP2      000000000330000002894000000000000000000000000000000000Two-Year S&P 500 Annual Point-to-Point  IDX           Y0300000000  0000000000                                                                                                                   
C1305BD800867                                            H1BUSH                               ROBERT                                                                                    N453030                                                                                                             
C1305BD800867                                            H1BUSH                               ROBERT                                                                                    N453030                                                                                                             
C1305BD800867                                            H1MARQUEZ                            HENRY                                                                                     N418205                                                                                                             
C1305BD800867                                            H1MARQUEZ                            HENRY                                                                                     N418205                                                                                                             
C1306BD800867                      20191001092 20660923917                                                                                                                                                                                                                                                  
C1309BD800867                      ELIZABETH                          SINGLETON                                                             HA174584559           3419620515   N1  M0000000000000000  0000000000                                                                                            
C1309BD800867                      GILBERT                            EDDIE                                                                 G2339385781           3419661221   N1  M0000000000000000  0000000000                                                                                            
C1309BD800867                      HOLLY                              EVERSON                                                               JV132765081           34           N1  N0000000000000000  0000000000                                                                                            
C1309BD800867                      JAMES                              ELIAS                                                                 BE                      19620515   N1   0000000000000000P11000000000                                                                                            
C1301BD800870                      31579E105VA                                                                                                                2000FIX                    NCT                                                                                                                
C1302BD800870                      0000000009355900CR  0000000009139935SU  0000000009000000TP  0000000000720000SC  0000000009355900GD                                                                                                                                                                       
C1302BD800870                      0000000009355900DE                                                                                                                                                                                                                                                       
C1303BD800870                      31579E105FIXED     000000000935590010000000000000000000000000000000000000Fixed Interest Option                   FIX           Y1000000000  0000000000                                                                                                                   
C1305BD800870                                            H1BUSH                               ROBERT                                                                                    N453030                                                                                                             
C1305BD800870                                            H1BUSH                               ROBERT                                                                                    N453030                                                                                                             
C1306BD800870                      20190923092 20460923917                                                                                                                                                                                                                                                  
C1309BD800870                      DIMARCO                            EDWARD                                                                OK520601081           3419561021   N1  M0000000000000000  0000000000                                                                                            
C1309BD800870                      MILAZZO                            MICHELLE                                                              BE                      19561021   N1   0000000000000000P11000000000                                                                                            
C1301BD800876                      31578L100VA                                                                                                                2010EIA                    NTX                                                                                                                
C1302BD800876                      0000000012076654CR  0000000011641263SU  0000000011000000TP  0000000000000000TZ  0000000011000000VO                                                                                                                                                                       
C1302BD800876                      0000000000869534SC  0000000011000000CB  0000000012076654GD  0000000012076654DE                                                                                                                                                                                           
C1303BD800876                      31578L100FFND      000000000111291000922000000000000000000000000000000000Fixed Interest Option                   FIX           Y0100000000  0000000000                                                                                                                   
C1303BD800876                      31578L100SP1R      000000000755924406259000000000000000000000000000000000One-Year S&P 500 Annual Point-to-Point wIDX           Y0600000000  0000000000                                                                                                                   
C1303BD800876                      31578L100SPB1      000000000113850000943000000000000000000000000000000000One-Year S&P 500 Declared Rate on Gain  IDX           Y0100000000  0000000000                                                                                                                   
C1303BD800876                      31578L100SPP       000000000116600000965000000000000000000000000000000000One-Year S&P 500 Annual Point-to-Point  IDX           Y0100000000  0000000000                                                                                                                   
C1303BD800876                      31578L100SPP2      000000000110000000911000000000000000000000000000000000Two-Year S&P 500 Annual Point-to-Point  IDX           Y0100000000  0000000000                                                                                                                   
C1305BD800876                                            H1CONN                               MARSHALL                                                                                  N832699                                                                                                             
C1305BD800876                                            H1CONN                               MARSHALL                                                                                  N832699                                                                                                             
C1306BD800876                      20191001092 20560923917                                                                                                                                                                                                                                                  
C1309BD800876                      ELIZABETH                          SINGLETON                                                             OK520601081           3419561021   N1  M0000000000000000  0000000000                                                                                            
C1309BD800876                      HOLLY                              EVERSON                                                               JV532615342           34           N1  N0000000000000000  0000000000                                                                                            
C1309BD800876                      JAMES                              ELIAS                                                                 BE                      19561021   N1   0000000000000000P11000000000                                                                                            
C1309BD800876                      BILLY                              VILLASENOR                                                            G5                      19561021   N1   0000000000000000P11000000000                                                                                            
C1301BD800895                      31579E105VA                                                                                                                2010FIX                    NIL                                                                                                                
C1302BD800895                      0000000002491812CR  0000000002434361SU  0000000002400000TP  0000000000000000TZ  0000000002400000VO                                                                                                                                                                       
C1302BD800895                      0000000000192000SC  0000000002400000CB  0000000002491812GD  0000000002491812DE                                                                                                                                                                                           
C1303BD800895                      31579E105FIXED     000000000249181210000000000000000000000000000000000000Fixed Interest Option                   FIX           Y1000000000  0000000000                                                                                                                   
C1305BD800895                                            H1MARQUEZ                            HENRY                                                                                     N418205                                                                                                             
C1305BD800895                                            H1MARQUEZ                            HENRY                                                                                     N418205                                                                                                             
C1306BD800895                      20190924092 20890924917                                                                                                                                                                                                                                                  
C1309BD800895                      ELIZABETH                          SINGLETON                                                             HA520601081           3419321021   N1  M0000000000000000  0000000000                                                                                            
C1309BD800895                      GILBERT                            EDDIE                                                                 G2532615343           3419891225   N1  M0000000000000000  0000000000                                                                                            
C1309BD800895                      JAMES                              ELIAS                                                                 BE                      19321021   N1   0000000000000000P11000000000                                                                                            
C1301BD800901                      31579E105VA                                                                                                                2010FIX                    NIL                                                                                                                
C1302BD800901                      0000000002491812CR  0000000002434361SU  0000000002400000TP  0000000000000000TZ  0000000002400000VO                                                                                                                                                                       
C1302BD800901                      0000000000192000SC  0000000002400000CB  0000000002491812GD  0000000002491812DE                                                                                                                                                                                           
C1303BD800901                      31579E105FIXED     000000000249181210000000000000000000000000000000000000Fixed Interest Option                   FIX           Y1000000000  0000000000                                                                                                                   
C1305BD800901                                            H1MARQUEZ                            HENRY                                                                                     N418205                                                                                                             
C1305BD800901                                            H1MARQUEZ                            HENRY                                                                                     N418205                                                                                                             
C1306BD800901                      20190924092 20890924917                                                                                                                                                                                                                                                  
C1309BD800901                      ELIZABETH                          SINGLETON                                                             HA520601081           3419561021   N1  M0000000000000000  0000000000                                                                                            
C1309BD800901                      GILBERT                            EDDIE                                                                 G2532615343           3419891225   N1  M0000000000000000  0000000000                                                                                            
C1309BD800901                      JAMES                              ELIAS                                                                 BE                      19561021   N1   0000000000000000P11000000000                                                                                            
C1301BD800919                      31579E105VA                                                                                                                2060FIX                    NNJ                                                                                                                
C1302BD800919                      0000000019747156CR  0000000018229828SU  0000000018966600TP  0000000001517328SC  0000000019747156GD                                                                                                                                                                       
C1302BD800919                      0000000019747156DE                                                                                                                                                                                                                                                       
C1303BD800919                      31579E105FIXED     000000001974715610000000000000000000000000000000000000Fixed Interest Option                   FIX           Y1000000000  0000000000                                                                                                                   
C1305BD800919                                            H1BUSH                               ROBERT                                                                                    N453030                                                                                                             
C1305BD800919                                            H1BUSH                               ROBERT                                                                                    N453030                                                                                                             
C1306BD800919                      20190925092 20840925917                                                                                                                                                                                                                                                  
C1309BD800919                      TEITELBAUM                         MARCIA                                                                OK541596169           3419940512   N1  M0000000000000000  0000000000                                                                                            
C1309BD800919                      TAYLOR                             RICHARD                                                               BE                      19940512   N1   0000000000000000P11000000000                                                                                            
C1301BD800920                      31579E105VA                                                                                                                3045FIX                    NNC                                                                                                                
C1302BD800920                      0000000009365007CR  0000000009160747SU  0000000009000000TP  0000000000720000SC  0000000009365007GD                                                                                                                                                                       
C1302BD800920                      0000000009365007DE                                                                                                                                                                                                                                                       
C1303BD800920                      31579E105FIXED     000000000936500710000000000000000000000000000000000000Fixed Interest Option                   FIX           Y1000000000  0000000000                                                                                                                   
C1305BD800920                                            H1JOHNSON                            EDNA                                                                                      N188410                                                                                                             
C1305BD800920                                            H1JOHNSON                            EDNA                                                                                      N188410                                                                                                             
C1306BD800920                      20190925092 20450925917                                                                                                                                                                                                                                                  
C1309BD800920                      ENDICOTT                           NATHAN                                                                OK543468342           3419550426   N1  M0000000000000000  0000000000                                                                                            
C1309BD800920                      LAURA                              LEARY                                                                 BE                      19550426   N1   0000000000000000P11000000000                                                                                            
C1301BD800923                      31579E105VA                                                                                                                2010FIX                    NNC                                                                                                                
C1302BD800923                      0000000004169405CR  0000000004073827SU  0000000004000000TP  0000000000000000TZ  0000000004000000VO                                                                                                                                                                       
C1302BD800923                      0000000000320000SC  0000000004000000CB  0000000004169405GD  0000000004169405DE                                                                                                                                                                                           
C1303BD800923                      31579E105FIXED     000000000416940510000000000000000000000000000000000000Fixed Interest Option                   FIX           Y1000000000  0000000000                                                                                                                   
C1305BD800923                                            H1BUSH                               ROBERT                                                                                    N453030                                                                                                             
C1305BD800923                                            H1BUSH                               ROBERT                                                                                    N453030                                                                                                             
C1305BD800923                                            H1JOHNSON                            EDNA                                                                                      N188410                                                                                                             
C1305BD800923                                            H1JOHNSON                            EDNA                                                                                      N188410                                                                                                             
C1306BD800923                      20190925092 20670925917                                                                                                                                                                                                                                                  
C1309BD800923                      HOWARD                             DAVID                                                                 OK157581279           3419770414   N1  M0000000000000000  0000000000                                                                                            
C1309BD800923                      LASALLE                            BARBARA                                                               BE                      19770414   N1   0000000000000000P11000000000                                                                                            
C1301BD800925                      31578L100VA                                                                                                                2000EIA                    NIL                                                                                                                
C1302BD800925                      0000000011402943CR  0000000010581901SU  0000000011000000TP  0000000000821042SC  0000000011402943GD                                                                                                                                                                       
C1302BD800925                      0000000011402943DE                                                                                                                                                                                                                                                       
C1303BD800925                      31578L100FFND      000000000222581901951000000000000000000000000000000000Fixed Interest Option                   FIX           Y0200000000  0000000000                                                                                                                   
C1303BD800925                      31578L100SP1R      000000000125162401098000000000000000000000000000000000One-Year S&P 500 Annual Point-to-Point  IDX           Y0100000000  0000000000                                                                                                                   
C1303BD800925                      31578L100SPB1      000000000227700001997000000000000000000000000000000000One-Year S&P 500 Declared Rate on Gain  IDX           Y0200000000  0000000000                                                                                                                   
C1303BD800925                      31578L100SPP       000000000234850002060000000000000000000000000000000000One-Year S&P 500 Annual Point-to-Point  IDX           Y0200000000  0000000000                                                                                                                   
C1303BD800925                      31578L100SPP2      000000000330000002894000000000000000000000000000000000Two-Year S&P 500 Annual Point-to-Point  IDX           Y0300000000  0000000000                                                                                                                   
C1305BD800925                                            H1BUSH                               ROBERT                                                                                    N453030                                                                                                             
C1305BD800925                                            H1BUSH                               ROBERT                                                                                    N453030                                                                                                             
C1305BD800925                                            H1MARQUEZ                            HENRY                                                                                     N418205                                                                                                             
C1305BD800925                                            H1MARQUEZ                            HENRY                                                                                     N418205                                                                                                             
C1306BD800925                      20191001092 20620926917                                                                                                                                                                                                                                                  
C1309BD800925                      ELIZABETH                          SINGLETON                                                             OK174584559           3419620515   N1  M0000000000000000  0000000000                                                                                            
C1309BD800925                      ELIZABETH                          SINGLETON                                                             JV                                 N1  N0000000000000000  0000000000                                                                                            
C1309BD800925                      JAMES                              ELIAS                                                                 BE                      19620515   N1   0000000000000000P11000000000                                                                                            
C1301BD800927                      31578L100DA                                                                                                                2010EIA                    NNC                                                                                                                
C1302BD800927                      0000000009474004CR  0000000009000000TP  0000000000000000TZ  0000000009000000VO  0000000009000000CB                                                                                                                                                                       
C1303BD800927                      31578L100FIXED     000000000947400410000000000000000000000000000000000000Fixed Interest Option                   FIX                        0000000000                                                                                                                   
C1305BD800927                                            H1JOHNSON                            EDNA                                                                                      N188410                                                                                                             
C1305BD800927                                            H1JOHNSON                            EDNA                                                                                      N188410                                                                                                             
C1306BD800927                      20191001092 20640926917                                                                                                                                                                                                                                                  
C1309BD800927                      ABC CORP                                                                                                 HA422212344           34           N1  N0000000000000000  0000000000                                                                                            
C1309BD800927                      JEFFREY                            CONNIE                                                                G2243021092           3419640312   N1  M0000000000000000  0000000000                                                                                            
C1309BD800927                      FITZGERALD                         JOANNE                                                                BE                                 N1   0000000000000000P11000000000                                                                                            
C1301BD800928                      31578L100VA                                                                                                                2000EIA                    NIL                                                                                                                
C1302BD800928                      0000000011402943CR  0000000010581901SU  0000000011000000TP  0000000000821042SC  0000000011402943GD                                                                                                                                                                       
C1302BD800928                      0000000011402943DE                                                                                                                                                                                                                                                       
C1303BD800928                      31578L100FFND      000000000222581901951000000000000000000000000000000000Fixed Interest Option                   FIX           Y0200000000  0000000000                                                                                                                   
C1303BD800928                      31578L100SP1R      000000000125162401098000000000000000000000000000000000One-Year S&P 500 Annual Point-to-Point  IDX           Y0100000000  0000000000                                                                                                                   
C1303BD800928                      31578L100SPB1      000000000227700001997000000000000000000000000000000000One-Year S&P 500 Declared Rate on Gain  IDX           Y0200000000  0000000000                                                                                                                   
C1303BD800928                      31578L100SPP       000000000234850002060000000000000000000000000000000000One-Year S&P 500 Annual Point-to-Point  IDX           Y0200000000  0000000000                                                                                                                   
C1303BD800928                      31578L100SPP2      000000000330000002894000000000000000000000000000000000Two-Year S&P 500 Annual Point-to-Point  IDX           Y0300000000  0000000000                                                                                                                   
C1305BD800928                                            H1BUSH                               ROBERT                                                                                    N453030                                                                                                             
C1305BD800928                                            H1BUSH                               ROBERT                                                                                    N453030                                                                                                             
C1305BD800928                                            H1MARQUEZ                            HENRY                                                                                     N418205                                                                                                             
C1305BD800928                                            H1MARQUEZ                            HENRY                                                                                     N418205                                                                                                             
C1306BD800928                      20191001092 20620926917                                                                                                                                                                                                                                                  
C1309BD800928                      ELIZABETH                          SINGLETON                                                             OK174584559           3419620515   N1  M0000000000000000  0000000000                                                                                            
C1309BD800928                      JAMES                              ELIAS                                                                 BE                      19620515   N1   0000000000000000P11000000000                                                                                            
C1301BD800934                      31578L100VA                                                                                                                2010EIA                    NVT                                                                                                                
C1302BD800934                      0000000008228386CR  0000000007931714SU  0000000008000000TP  0000000000000000TZ  0000000008000000VO                                                                                                                                                                       
C1302BD800934                      0000000000592494SC  0000000008000000CB  0000000008228386GD  0000000008228386DE                                                                                                                                                                                           
C1303BD800934                      31578L100FFND      000000000364225004426000000000000000000000000000000000Fixed Interest Option                   FIX           Y0450000000  0000000000                                                                                                                   
C1303BD800934                      31578L100SP1R      000000000045813600557000000000000000000000000000000000One-Year S&P 500 Annual Point-to-Point wIDX           Y0050000000  0000000000                                                                                                                   
C1303BD800934                      31578L100SPB1      000000000165600002013000000000000000000000000000000000One-Year S&P 500 Declared Rate on Gain  IDX           Y0200000000  0000000000                                                                                                                   
C1303BD800934                      31578L100SPP       000000000127200001546000000000000000000000000000000000One-Year S&P 500 Annual Point-to-Point  IDX           Y0150000000  0000000000                                                                                                                   
C1303BD800934                      31578L100SPP2      000000000120000001458000000000000000000000000000000000Two-Year S&P 500 Annual Point-to-Point  IDX           Y0150000000  0000000000                                                                                                                   
C1305BD800934                                            H1LITTLE                             RICHARD                                                                                   N835659                                                                                                             
C1305BD800934                                            H1LITTLE                             RICHARD                                                                                   N835659                                                                                                             
C1306BD800934                      20191001092 20980926917                                                                                                                                                                                                                                                  
C1309BD800934                      SUE                                SUSAN                                                                 HA009386262           3419770808   N1  F0000000000000000  0000000000                                                                                            
C1309BD800934                      SMEEN                              SAM                                                                   G2009867215           3419980721   N1  F0000000000000000  0000000000                                                                                            
C1309BD800934                      DUD                                ROSY                                                                  BE                      19770808   N1   0000000000000000P11000000000                                                                                            
C1301BD800948                      31579E105VA                                                                                  80239930                      2010FIX                    NAL                                                                                                                
C1302BD800948                      0000000007793809CR  0000000007624436SU  0000000007500000TP  0000000000000000TZ  0000000007500000VO                                                                                                                                                                       
C1302BD800948                      0000000000600000SC  0000000007500000CB  0000000007793809GD  0000000007793809DE                                                                                                                                                                                           
C1303BD800948                      31579E105FIXED     000000000779380910000000000000000000000000000000000000Fixed Interest Option                   FIX           Y1000000000  0000000000                                                                                                                   
C1305BD800948                                            H1BUSH                               ROBERT                                                                                    N453030                                                                                                             
C1305BD800948                                            H1BUSH                               ROBERT                                                                                    N453030                                                                                                             
C1306BD800948                      20190927092 20700927917                                                                                                                                                                                                                                                  
C1309BD800948                      PYTHON TRUST                                                                                             HA567994368           FI           X5  N0000000000000000  0000000000                                                                                            
C1309BD800948                      DARWIN                             CHARLES K                                                             G2751053348           3419800909   N1  M0000000000000000  0000000000                                                                                            
C1309BD800948                      DARWIN                             CHARLES K                                                             BE                                 N1   0000000000000000P11000000000                                                                                            
C1301BD800949                      31579E105VA                                                                                                                2010FIX                    NIL                                                                                                                
C1302BD800949                      0000000002477757CR  0000000002430449SU  0000000002400000TP  0000000000000000TZ  0000000002400000VO                                                                                                                                                                       
C1302BD800949                      0000000000192000SC  0000000002400000CB  0000000002477757GD  0000000002477757DE                                                                                                                                                                                           
C1303BD800949                      31579E105FIXED     000000000247775710000000000000000000000000000000000000Fixed Interest Option                   FIX           Y1000000000  0000000000                                                                                                                   
C1305BD800949                                            H1MARQUEZ                            HENRY                                                                                     N418205                                                                                                             
C1305BD800949                                            H1MARQUEZ                            HENRY                                                                                     N418205                                                                                                             
C1306BD800949                      20190930092 20200930917                                                                                                                                                                                                                                                  
C1309BD800949                      ELIZABETH                          SINGLETON                                                             HA520601081           3419561021   N1  M0000000000000000  0000000000                                                                                            
C1309BD800949                      GILBERT                            EDDIE                                                                 G2532615343           3419891225   N1  M0000000000000000  0000000000                                                                                            
C1309BD800949                      JAMES                              ELIAS                                                                 BE                      19561021   N1   0000000000000000P11000000000                                                                                            
C1301BD800952                      31578L118VA                                                                                                                2010EIA                    NAR                                                                                                                
C1302BD800952                      0000000003138127CR  0000000003032735SU  0000000003000000TP  0000000000000000TZ  0000000003000000VO                                                                                                                                                                       
C1302BD800952                      0000000000225945SC  0000000003000000CB  0000000003138127GD  0000000003138127DE                                                                                                                                                                                           
C1303BD800952                      31578L118SP1R      000000000313812710000000000000000000000000000000000000One-Year S&P 500 Monthly Index Average  IDX           Y1000000000  0000000000                                                                                                                   
C1305BD800952                                            H1BUSH                               ROBERT                                                                                    N453030                                                                                                             
C1305BD800952                                            H1BUSH                               ROBERT                                                                                    N453030                                                                                                             
C1306BD800952                      20191001092 20410930917                                                                                                                                                                                                                                                  
C1309BD800952                      A                                  A                                                                     OK222334444           3419410505   N1  M0000000000000000  0000000000                                                                                            
C1309BD800952                      B                                  B                                                                     BE                      19410505   N1   0000000000000000P11000000000                                                                                            
C1301BD800959                      31579E105VA                                                                                                                3215FIX                    NCA                                                                                                                
C1302BD800959                      0000000011388878CR  0000000010508878SU  0000000011000000TP  0000000000880000SC  0000000011388878GD                                                                                                                                                                       
C1302BD800959                      0000000011388878DE                                                                                                                                                                                                                                                       
C1303BD800959                      31579E105FIXED     000000001138887810000000000000000000000000000000000000Fixed Interest Option                   FIX           Y1000000000  0000000000                                                                                                                   
C1305BD800959                                            H1BUSH                               ROBERT                                                                                    N453030                                                                                                             
C1305BD800959                                            H1BUSH                               ROBERT                                                                                    N453030                                                                                                             
C1306BD800959                      20190930092 20640930917                                                                                                                                                                                                                                                  
C1309BD800959                      SANDRA                             MONROE                                                                OK541592598           3419640611   N1  M0000000000000000  0000000000                                                                                            
C1309BD800959                      BAILEY                             ALLEN                                                                 BE                      19640611   N1   0000000000000000P11000000000                                                                                            
C1301BD800960                      31578L100VA                                                                                  90876238438                   2010EIA                    NAK                                                                                                                
C1302BD800960                      0000000007639230CR  0000000007089182SU  0000000007400000TP  0000000000000000TZ  0000000007400000VO                                                                                                                                                                       
